:020000040800F2
:10000000D808002035020008A92600085F23000850
:10001000A526000861200008133500080000000034
:10002000000000000000000000000000B52E0008E5
:10003000D920000800000000292C0008F131000838
:100040004F0200084F0200084F0200084F0200084C
:100050004F0200084F0200084F0200084F0200083C
:100060004F0200084F0200084F0200084F0200082C
:100070004F0200084F0200084F0200084F0200081C
:100080004F0200084F0200084F0200084F0200080C
:100090004F0200084F0200084F0200084F020008FC
:1000A0004F0200084F0200084F0200084F020008EC
:1000B0004F0200084F0200084F0200084F020008DC
:1000C0004F0200084F0200084F0200084F020008CC
:1000D0004F020008B93200084F0200084F02000822
:1000E0004F0200084F0200084F02000800F002F81B
:1000F00000F090F80AA090E8000C82448344AAF132
:100100000107DA4501D100F085F8AFF2090EBAE82F
:100110000F0013F0010F18BFFB1A43F0010318473B
:100120002C4400004C440000103A24BF78C878C129
:10013000FAD8520724BF30C830C144BF04680C60ED
:10014000704700000023002400250026103A28BF35
:1001500078C1FBD8520728BF30C148BF0B60704739
:100160006E2900F0FF82702900F06F86662903F087
:100170007286652903F06F86672903F06C86612912
:1001800003F06B8603681B0A28BF41F080016929D0
:1001900000F0DE80642900F0DB80752900F0D88053
:1001A0006F2900F0FC85782900F03B86E92900F0F2
:1001B0009785E42900F09485F52900F09185EF29D1
:1001C00000F0F985F82900F03A860368DB0928BFBA
:1001D00041F08001632900F01885732900F01D8526
:1001E000E32901F0A380F32901F0A88000207047E3
:1001F0001FB500F089FE04000020002103F050FA32
:10020000401C60600020002103F060FAE0601FBD28
:1002100010B510BD01F036F91146FFF7E9FF03F004
:10022000D3F901F054F903B4FFF7F2FF03BC01F076
:1002300097F900000948804709480047FEE7FEE7B4
:10024000FEE7FEE7FEE7FEE7FEE7FEE7FEE7FEE786
:1002500004480549054A064B70470000553200081E
:10026000ED000008D8020020D8080020D8040020A3
:10027000D80400201CB50C46064B7B446946009010
:10028000204600F098FC04460020694600F0A6FCD9
:1002900020461CBD5F0900000FB41CB5084B06AA20
:1002A0007B4469460090059800F085FC04460020D8
:1002B000694600F093FC20461CBC5DF814FB00006E
:1002C000390900000FB47CB50C0009AA009001D0D8
:1002D0002044401E084B7B4469460190089800F07A
:1002E0006AFC05461CB10020694600F077FC2846F0
:1002F0007CBC5DF814FB00000D09000070B50C46D5
:100300000546012A05D02878800600D5EA69002331
:1003100002E0012305E05B1C934202D2E05C00286E
:10032000F9D1A869E618C01AA861286A1844286299
:10033000284600F085F904E0D5E9012114F8010B05
:100340009047B442F8D3284600F090F970BD000001
:100350002DE9F0410646002410687529314616A59E
:1003600010D000F094F9002802DA404213A507E00B
:1003700031688A0701D512A502E0490704D511A505
:10038000012401E000F08CF900210A2206F1240783
:1003900009E0B0FBF2FCB0FBF2F302FB1C003030D2
:1003A00078541846491C0028F3D123462A46304683
:1003B000BDE8F04100F07DB9000000002D00000014
:1003C0002B000000200000002DE9F05F8946044664
:1003D0004FF0000ADFF874B1FB44C0F820A02046BB
:1003E000E1688847002874D0252806D0D4E9012187
:1003F0009047206A401C2062F1E700265F462046B5
:10040000E16888472028054607DB312D05D2781999
:1004100010F8200C08B10643F1E7B00701D526F02B
:100420000406C4F81CA00027C4F818A02A2D09D07F
:10043000284603F084F838B304EB8708303DC8F849
:10044000185019E059F8041B204604EB870291610B
:10045000E1688847012F054618D1E069002820DAB5
:1004600026F020061DE0D8F8180000EB800005EB10
:1004700040003038C8F818002046E1688847054633
:1004800003F05DF80028EED1012F0AD02E2D08D1FF
:100490002046E16888477F1C0546022F46F020066B
:1004A000C4DBA069002803DA404246F00106A061DF
:1004B000F00701D026F010066C2D0BD0682D09D066
:1004C0004C2D39D06A2D35D0742D35D07A2D33D0BE
:1004D00016E038E0E1682F4620468847B8420546D6
:1004E00009D16C2F26D04FF48060E1680643204686
:1004F0008847054604E06C2F1AD04FF480700643FD
:100500000DB3A5F14100192802D8203546F4006644
:100510004A462946204626604E46FFF721FE80B116
:1005200001280BD0F61D26F0070000F1080956E758
:100530004020E4E78020D8E70020D6E706F1040950
:100540004DE7284652E7206ABDE8F09F7240000060
:100550002DE9F04791460F4680460446002614F8E0
:10056000015B2DB100F060F80068405DC007F6D176
:100570002B2D02D02D2D18D0641E4A463946204618
:1005800000F06EFC27B13968A14201D1C7F80080A4
:100590004FF0020471050BD54042002803DD00F046
:1005A0004BF80460A007BDE8F08746F48066E4E7F6
:1005B0000028F8DA00F040F804606FF00040F2E73D
:1005C00030B505460B462A4613F8014B12F8010BCD
:1005D00008B1A042F8D01CB1002802D06D1CF1E790
:1005E000284630BD10B5431C02E010F8011B71B164
:1005F0008107FAD14FF0013202C88C1A8C4314EAF9
:10060000C211F9D0C01A0A0603D0C01E10BDC01A0C
:1006100010BD0A0401D0801E10BD0902FCD0401E8E
:1006200010BD70477047704710B500F06DFC001D9D
:1006300010BD00BF6D3000000048704778020020F8
:1006400070B5044685690068C10601D5302600E012
:100650002026C00707D070BDD4E90121304690475D
:10066000206A401C20626D1EF6D570BD70B5044630
:1006700085690078C00707D170BDD4E90121202029
:100680009047206A401C20626D1EF6D570BD096837
:100690004A0501D540B27047C905FCD500B2704784
:1006A00009684A0501D5C0B27047C905FCD580B2BA
:1006B00070472DE9F0470D4699469246044600F1F1
:1006C00024080168880604D5E06921F01001216042
:1006D00000E00120A84201DD471B00E00027A169DE
:1006E0007A1902EB0900081AA0612078C00602D42A
:1006F0002046FFF7A5FF002608E0D4E901211AF8FB
:1007000006009047206A401C761C20624E45F4DBB0
:100710002078C0060AD52046FFF792FF06E0D4E90C
:10072000012130209047206A401C2062381EA7F12A
:100730000107F4DC07E0D4E9012118F8050090472F
:10074000206A401C2062281EA5F10105F3DC20462A
:10075000FFF78CFF2078000602D50220BDE8F08765
:100760000120FBE711680268006A530501D5087093
:100770000AE0D30501D5088006E0130603D5C217A9
:10078000C1E9000200E008600120704770472DE9D0
:10079000FF4F0C461E464FF0FF378BB0D2E90001E9
:1007A000DDF860800A908A46C1F30A5505B93D46D6
:1007B000002108464FF00000BAF1000F00F440009D
:1007C00005DA00EB80004FF4400101EA50004FEAE7
:1007D0009059B9F1010F00DDB9460A9850EA4A0074
:1007E0000ED044F61050A5F2FF3545432F14B8F152
:1007F000000F1ED07542291E1EDDC9F100021CE04B
:10080000B8F1010F4FF0000001D0302103E0F243B6
:1008100005E02154401CB042FBDB304600220021A1
:1008200021540B99C1F80880C1E900200FB0BDE840
:10083000F08FBD1B6D1CDEE74A4600DA694206A850
:1008400000F08EFD06AB93E8070003AB83E80700DA
:1008500050460A9900F08BFE8DE80700A0F5005085
:100860001F3800900398002D0ADD42F21F014A460E
:100870000844002303A90390684601F0F4F809E056
:10088000A0F500504A461F38002303A9039068468C
:1008900001F0FEF88DE807000004000C03D04FF0D3
:1008A000FF30410800E01046B8F1000F03D00022ED
:1008B000009215461EE0751E05D400F029FB30326B
:1008C00062556D1EF9D5B3460122084302D00022BD
:1008D0007F1C04E02078302801D100227F1E002AEE
:1008E000099784D01DE0112D07DA00F011FB30329A
:1008F00062556D1C50EA0102F5D1084302D0009800
:10090000C8B10EE00021681E05E0235C625C635400
:100910002254401E491C8142F7DBAB46A81B401EF7
:100920000990002004F80B000B98099AC0F8088081
:10093000C0E9002B7AE711264FF0000857E72DE9B0
:10094000F04F88460446D21D22F0070191B0D1E94C
:100950000001CDE90A0102F0DEFD02460B98C00F4E
:1009600001D02D2007E02068810701D52B2002E06F
:10097000202101EAC000032A099001D0072A05DBE3
:1009800003464146204600F087FC0BE120788006B4
:1009900001D5E06900E00620B8F1650F814606D078
:1009A000B8F1660F18D0B8F1670F70D131E00020B0
:1009B000B9F1110F009001DB112301E009F10103EE
:1009C0000AAA01A90CA8FFF7E2FEDDE90C700026D7
:1009D00009F10105834647E001204B4600904FF0A6
:1009E00000470AAA01A90CA8FFF7D1FEDDE90DB066
:1009F0000C995D46002610B909F101000D18B9EBFC
:100A0000050003D4C0F1FF3609F10105A5EB09008B
:100A10002BE0B9F1010F01DA4FF001090020B9F123
:100A2000110F0090484601DD112300E003460AAA99
:100A300001A90CA8FFF7ABFEDDE90C704D460026BE
:100A40008346207800070AD4AB4500DA5D4601A84A
:100A5000012D04DD411911F8011C302907D04F4543
:100A600002DA17F1040F04DA012082460FE06D1E4E
:100A7000EEE7002F02DCED1B3E4403E0781CA842A9
:100A800000DD7D1CB81B00F1010A4FF00047207803
:100A9000000703D4AA4501DB4FF0FF3A0021B7F16C
:100AA000004F0DF143088DF8431024D002202B2372
:100AB000002F01DA7F422D230A21021EA0F101003E
:100AC00000DC5FB197FBF1FC97FBF1F201FB1C7CB2
:100AD00017460CF1300C08F801CDEEE7A8F1010043
:100AE00003702188090501D5452100E06521A0F1A9
:100AF000010800F8011C09980FA9A1EB0807FF1DC8
:100B000000B10120411901EBEA70A1693844081ACB
:100B1000401EA0612078C00602D42046FFF790FD59
:100B2000099828B1D4E901219047206A401C20622D
:100B30002078C00622D52046FFF782FD1EE0002E59
:100B400004DBB34502DD01A8805D00E03020D4E97C
:100B500001219047206A401C2062761CAAF1010006
:100B60005FEA000A0AD100F0CFF9C0680168405C72
:100B7000D4E901219047206A401C2062281EA5F17B
:100B80000105DCDC07E0D4E9012118F8010B9047EE
:100B9000206A401C2062381EA7F10107F3DC2046C2
:100BA000FFF764FD032011B041E6000001694A1C13
:100BB00002610878704700B58FB0CDE9013100219E
:100BC000059105497944CDE9031011466846FFF7C0
:100BD000FBFB0FB000BD0000E5FFFFFF0A6802F855
:100BE000010B0A607047D1E900239A4202D2531CDC
:100BF0000B601070704710B5436913B1AFF30080FC
:100C000001E0FFF77BFB012010BD127800F1240109
:100C10000A7000224A700122EDE711684FF0FF329E
:100C2000E9E700002DE9FF5F15468A460446DFF834
:100C3000AC80F8440027D8E900103E46CDE900100A
:100C400010E03AF816106A4602A800F0FBFB411CBF
:100C500007D02178890603D5E269391891420DD869
:100C60000744761C2078800602D5E069B84205DD8D
:100C7000AE42E6DB3AF816000028E2D1A069C01BBC
:100C8000A0612046FFF7DCFCD8E90010CDE9001098
:100C9000002017E03AF818106A4602A800F0D2FBCC
:100CA000B0F1FF3F81460BD000250DF1080B05E0A8
:100CB000D4E901211BF8050090476D1C4D45F7D381
:100CC00008F10100B0428046E4DB206A384420622B
:100CD0002046FFF7CBFCBDE8FF9F00002A3800004C
:100CE0002DE9F0418046D21D22F007020025D2E90D
:100CF0000002F52915A614D0011E72F1000106DAD2
:100D00000023D0EB030063EB020211A608E0D8F841
:100D100000108B0701D50FA602E0490701D50EA6EA
:100D200001251146002408F1240704E000F0F0F842
:100D300030323A55641C50EA0102F7D12B46324654
:100D400021464046BDE8F041FFF7B3BC000000007B
:100D50002D0000002B0000002000000030B4002116
:100D600000F1240408E002F00705D208303542EA19
:100D70004372DB086554491C52EA0305F3D1046849
:100D8000002310A2250707D5A40600D421B1C46909
:100D900001230DA2641EC46130BCFFF78ABC10B5EC
:100DA000044621461068FFF77BFC02462046BDE85A
:100DB00010400023D2E7D21D22F00701D1E9002321
:100DC000CCE700000000000030000000F0B40D4649
:100DD0000188090502D5214C7C4402E01F4C7C446B
:100DE0000E34002100F1240608E002F00F0712097A
:100DF000E75D42EA03721B097754491C52EA030774
:100E0000F3D102780023120704D5702D06D009B162
:100E1000022311342246F0BCFFF74BBC01231034EF
:100E2000F8E770B504460D4621461068FFF738FC18
:100E3000024629462046BDE870400023C6E7D21D81
:100E400022F00703D3E90023C0E70368126843F0E8
:100E5000200303600823C3610023B7E78C3600003A
:100E60002DE9F05F824615468B4600270AF1010402
:100E7000B9460078302801D09DB113E014F8010B79
:100E80000127782803D0582801D045B10AE00DB1D8
:100E9000102D07D1002714F8010B102502E00825BA
:100EA00000E00A250026B0460EE005FB080005FB21
:100EB00006F101271FFA80F801EB1046B6F5803FD6
:100EC00000D3B94614F8010B294600F03BFA00287C
:100ED000EBDABBF1000F05D00FB1641E00E0544601
:100EE000CBF80040B9F1000F06D0FFF7A5FB0221B7
:100EF0000160C81EBDE8F09F48EA0640FAE700001E
:100F0000004870477802002000487047980200208F
:100F100030B5B0F10A024FEA900E71F100034EEACB
:100F2000817EB0EB0E0061EB91014FEA101E4EEA9C
:100F3000017E10EB0E0041EB11114FEA102E4EEA2C
:100F4000016E10EB0E0041EB11214FEA104E4EEAFC
:100F5000014E10EB0E0041EB1141401841F1000130
:100F60004FEAD00040EA41704FEAD10110EB800512
:100F70004FEA810444EA907444EB01046D1944EB98
:100F80000404521BA3414FF0000348BF0A3200D5AE
:100F900030BD401C41F1000130BD00002DE9F04F93
:100FA00004460D46D21D22F0070089B0D0E9009713
:100FB0004846394602F0AFFA0246F80F01D02D2319
:100FC00007E02068810701D52B2302E0202101EAF8
:100FD000C0038DF820300BB1012000E00020032A6F
:100FE000824601D0072A04DB2946204600F054F946
:100FF0003FE12078800601D40D2500E0E569C7F3C4
:101000000A560D2D49DA00214FEA175B08464FF0CA
:101010000000002F00F4400007DA00EB80004FF4DE
:10102000400100EBD07001EA60008115012901DD6B
:101030004FF0FF3100224FEA850CBCF1180F06D3A8
:101040001346ACF118004FF08052C24003E04FF459
:10105000801323FA0CF30CF10C0CBCF1200F04D319
:10106000ACF1200C09FA0CF001E007FA0CF00029B1
:101070004FF0004801DD18B90FE00ED140450CD308
:1010800019EB02095F4121B9404502D19F4329EA8A
:101090000209BBEB175F00D0761C2088000502D543
:1010A0007B48784402E07A487844193808AA30230B
:1010B00002F80A30037C0AF10101002E0AF1020A4B
:1010C00053546A4602DC4FF0300101E04FF0310129
:1010D0004FF001088DF8001002D0A6F2FF3603E0B1
:1010E00059EA470100D06B4E002D02DC2178090738
:1010F00004D54FF002082E218DF80110C4460021BE
:101100000BE0C7F303433F01C35C491C6D1E02F8AB
:101110000830052908F1010801DA002DF1DC002171
:101120000CE000EB1973491C1B786D1E082902F8AE
:1011300008304FEA091908F1010801DA002DF0DC46
:1011400021688B0602D516E0A8F10108E04505DD0F
:1011500002EB080313F8013C302BF5D0B8F1000F77
:1011600009DD02EB080313F8013C2E2B03D109071C
:1011700001D4A8F10108002D05DD3E2102F8081078
:101180006D1E08F10108407C002E02F8080008F1ED
:10119000010804DA2D20764202F8080002E02B2034
:1011A00002F808000A214FF47A70864208F101081B
:1011B0000BDB96FBF0F3303302F8083096FBF0F3CC
:1011C00008F1010800FB136601E0642E0CDB6420CB
:1011D00096FBF0F3303302F8083096FBF0F308F199
:1011E000010800FB136601E00A2E06DB96FBF1F016
:1011F000303002F8080008F1010896FBF1F001FB1D
:101200001060303002F80800A16908F1010808EB0D
:10121000050202EB0A00081AA0612078C00602D479
:101220002046FFF70DFA216A08AE01EB0A002062A2
:1012300004E0D4E9012116F8010B9047BAF1010A44
:10124000F7D22078C00602D52046FFF7F9F96E469E
:1012500009E016F8010B3E280FD0D4E90121904790
:10126000206A401C2062B8F10108F2D22046FFF744
:10127000FDF909B00320BDE8F08F206A2844206200
:1012800003E0D4E90121302090476D1EEBD3F8E74D
:10129000FD33000002FCFFFF2DE9F0411F4604462C
:1012A00003260168072A01F4006004DB08B116A5D3
:1012B00005E016A503E008B115A500E015A521F08D
:1012C00010002060A069C01EA0610FB1401EA06187
:1012D0002046FFF7B5F94FB1D4E9012138469047D0
:1012E000206A401C2062C01C206206E0206AFAE7E7
:1012F000D4E9012115F8010B9047761EF8D220465B
:10130000FFF7B4F9BDE8F0814E414E006E616E000A
:10131000494E4600696E660010B5436913B1AFF3DC
:10132000008001E0FFF77EFC012010BD128800F173
:10133000240182840022C2840122EDE711684FF06B
:10134000FF32E9E73A2800D2303820F02002412A63
:1013500001D3A2F13700884201D34FF0FF3070472C
:101360002DE9F047814616468AB0354878440DC8C5
:101370008DE80D0032487844801C03AC0DC884E829
:101380000D0041F69B300844372190FBF1F290FBB1
:10139000F1F5A5F1800501FB12041B3C02D5644266
:1013A000012000E00020DFF898A080460027FA44E2
:1013B000AAF1BE0A0EE0E0070AD03246684607EB03
:1013C000470101230AEB810100F062FB8DE8070071
:1013D00064107F1C002CEED1194F7F44AE3F19E002
:1013E000E80715D007EB04100DF1180A90E80E007D
:1013F0008AE80E00C068F04201D198190890324680
:10140000012306A903A800F043FB03AB83E8070010
:101410006D10641C002DE3D14FF001033246694684
:10142000B8F1000F03A802D000F01DFB01E000F0AE
:101430002FFBC9E90001C9F808200AB0BDE8F08710
:10144000C431000070B516460C460546FFF7ECF8AF
:10145000036893F80101012806D0FF2C0FD8185D0E
:1014600068B101202C7070BDD3F8070132462146C7
:1014700003F2071303442846BDE8704018474FF0B5
:10148000FF3070BD7546FFF73BFDAE46050069466F
:10149000534620F00700854618B020B5FEF7D8FE69
:1014A000BDE820404FF000064FF000074FF0000865
:1014B0004FF0000B21F00701AC46ACE8C009ACE8E6
:1014C000C009ACE8C009ACE8C0098D46704710B54A
:1014D0000446AFF300802046BDE81040FEF7A3BEEF
:1014E0004FF0013C50F8042B51F8043B9A4221D1B3
:1014F000A2EB0C03934313EACC1317D150F8042B3F
:1015000051F8043B9A4215D1A2EB0C03934313EA22
:10151000CC130BD150F8042B51F8043B9A4209D15B
:10152000A2EB0C03934313EACC13DBD04FF0000083
:10153000704700BFD01A01BAB1FA81F101F0180169
:1015400022FA01F0CB40C1F12001DBB2C0B2C01AD7
:101550002CFA01F3D11A914311EAC311E6D1704775
:1015600001491820ABBEFEE72600020070475FEA83
:10157000400C08BF91F0000F4FEA8C234FEAC122C4
:1015800043EA51514FEA1C5018BF00F5F0404FEAB2
:10159000300018BF41F000415FEA6C5C00F0298028
:1015A000BCF1FF3F08BF40F080407047130C06BFFE
:1015B00012044FF0100C4FF0000C130E04BF120277
:1015C0000CF1080C130F04BF12010CF1040C930F63
:1015D00004BF92000CF1020CD30F04BF52000CF1B7
:1015E000010C11464FF00002A0F11F00A0EB0C000F
:1015F000704711F0004F08BF704731F000413FF4D1
:10160000D5AF0B0C06BF09044FF0100C4FF0000CC7
:101610000B0E04BF09020CF1080C0B0F04BF0901EB
:101620000CF1040C8B0F04BF89000CF1020CCB0FE2
:1016300004BF49000CF1010CCCF12003A0EB0C001D
:1016400022FA03F302FA0CF241EA030100F101006D
:10165000704720F07F4C80EA030023F07F47ACEB1B
:10166000070303F57C5300F0004003F1FF032DE96D
:1016700080494FEA154B09B44FEA144325EA0B4E53
:1016800024EA03480FF2042606EB132749083E78A4
:101690005FEA320203FB0667C7F5000707FB06F6A1
:1016A0004FEA54374FEAD64606F1020607FB066CAE
:1016B000CCF1005C4FEA1C472CEA074C07FB06F410
:1016C0000CFB06F504EB15464FEA961634BF0020D6
:1016D0004FF000404FEAD13706FB07FC4FEA1C4CA5
:1016E0000CFB0BF7D21B03FB0CF761EB07010CFBA8
:1016F0000EF7B0EB074072EB17420CFB08F734BF54
:10170000A2EB0742B2EB074261EB17414FEA0C44F0
:101710004FEA910706FB07FC4FEA1C4C0CFB0BF74A
:10172000B0EBC74072EB573203FB0CF734BFA2EBB0
:10173000C742B2EBC74261EB57310CFB0EF7B0EB7F
:10174000C70072EB57720CFB08F734BFA2EBC7025D
:10175000B2EBC70261EB5771039F4FEA816141EA27
:10176000921104EBCC044FEAD1374FEA826206FBB8
:1017700007FC42EA90124FEA80604FEA1C4C0CFBD7
:101780000BF7D21B03FB0CF761EB07010CFB0EF709
:10179000B0EB074072EB17420CFB08F734BFA2EB2B
:1017A0000742B2EB074261EB17414FEA8C554FEA13
:1017B000910704EB9C2406FB07FC4FEA1C4C0CFB36
:1017C0000BF7B0EBC74072EB573203FB0CF734BF9B
:1017D000A2EBC742B2EBC74261EB57310CFB0EF7ED
:1017E000B0EBC70072EB57720CFB08F734BFA2EBEB
:1017F000C702B2EBC70261EB577115EB4C254FEAFC
:10180000816141EA92114FEA82624FEAD13742EA9E
:10181000901206FB07FC44F100044FEA80604FEA97
:101820001C4C0CFB0BF7D21B03FB0CF761EB070105
:101830000CFB0EF7B0EB074072EB17420CFB08F7FE
:1018400034BFA2EB0742B2EB074261EB174115EB45
:101850001C154FEA813141EA92414FEA823242EA55
:1018600090424FEA80304FEA0C7644F1000448EA97
:1018700003434EEA0B484FF0000EB2EB080C71EB3D
:10188000030724BF624639464EEB0E0E4FF0000BA5
:101890000018524149414BEB0B0BB2EB080C71EBBA
:1018A00003077BF1000B24BF624639464EEB0E0E58
:1018B0004FF0000B0018524149414BEB0B0BB2EBC0
:1018C000080C71EB03077BF1000B24BF624639461D
:1018D0004EEB0E0E51EA020718BF46F0010616EB5A
:1018E0000E7655F1000254F1000103D5BDE88901DF
:1018F000BDE80088BDE88901BDE80048B61952413D
:1019000041EB0101A3F10103704780807F7E7D7C64
:101910007B7A7978777676757473727171706F6E81
:101920006E6D6C6C6B6A6A6968686766666564642C
:10193000636362616160605F5F5E5E5D5D5C5C5BB6
:101940005B5A5A5959585857575656555555545425
:10195000535352525251515050504F4F4F4E4E4D83
:101960004D4D4C4C4C4B4B4B4A4A4A4949494848CF
:10197000484747474746464645454544444444430F
:1019800043434342424242414141002B9C4630D4B2
:1019900077002BD01CB54FEA370703B44FF0100087
:1019A0004FF01001BAF1000F06D0BCF1000FDCBF00
:1019B00040F0080040F008014FF000000FBCBDE807
:1019C00010400BF1010BBBF1010F08BF5FEA1707D5
:1019D00022BF12F1010211F101014FF0004143F168
:1019E000000300F0004043EA00007047F9D35708B5
:1019F000D0E746EA064613F1400F4FEA16461FDDD0
:101A000013F1200FDFBF16430A46002120335B424B
:101A1000BED0C3F1200746EA064602FA07F74FEAAE
:101A2000164646EA0706C3F1200722FA03F201FA36
:101A300007F721FA03F14FF0000342EA0702A7E794
:101A400046EA020646EA06464FEA164646EA010616
:101A5000BCBF46EA0646360C4FF000034FF00002CA
:101A60004FF0000194E72DE9804C9A46934670B4FC
:101A700091E8380007C831EA400C48BF34EA430C0B
:101A800003D5FFF7E6FDFFF780FFF0BCBDE8008C53
:101A90002DE9804C9A46934670B491E8380007C807
:101AA00010F0804F08BF13F0804F03D100F005F80D
:101AB000FFF76BFFF0BCBDE8008C20F07F4780EAA9
:101AC000030023F07F4C07EB0C03A3F57C5300F0DD
:101AD0000040A3F1FE0392F0000F00F0B38095F0F8
:101AE000000F00F077802DE901494FEA11404FEADD
:101AF000144621EA004800FB06FC24EA064708FBDE
:101B000006F607FB08F800FB07F718EB06484CEB56
:101B1000164C4FEA124B18EB07484FEA15464CEBB0
:101B2000174022EA0B4E0BFB06FC25EA06470EFB8C
:101B300006F607FB0EFE0BFB07F71EEB064E4CEB03
:101B4000164C4FF000061EEB074E4CEB174B18EBF4
:101B50000B0840F1000018EB0E0B58EB000840F1A9
:101B600000008F1A4FF000013CBFC943661B14BF31
:101B7000B5EB040C00213CBFC943F61B4FEA1744E8
:101B80004EEA8E0E27EA04454FEA1C4704FB076223
:101B90002CEA074C05FB07F70CFB05F604FB0CFCD5
:101BA00016EB074642EB174216EB0C4642EB1C4283
:101BB0001BEB060658EB0202414146EA9E0601D5A0
:101BC000BDE80189B619524141EB0101A3F10103BE
:101BD000BDE801894FEA14454FEA114724EA05465A
:101BE00021EA074C05FB07F406FB07F70CFB06F19F
:101BF00005FB0CFC11EB074144EB17444FEA12477D
:101C000011EB0C4144EB1C4422EA074C05FB07F2A4
:101C100006FB07F70CFB06F605FB0CFC16EB07466C
:101C200042EB174216EB0C4642EB1C456A1854F186
:101C3000000148BF7047B619524141EB0101A3F1C1
:101C40000103704795F0000F37D04FEA11424FEA79
:101C5000144721EA024624EA074C02FB07F106FB7F
:101C600007F70CFB06F402FB0CFC14EB074441EBFA
:101C700017414FEA154714EB0C4441EB1C4125EA90
:101C8000074C02FB07F506FB07F70CFB06F602FB09
:101C90000CFC16EB074645EB174516EB0C4645EBDF
:101CA0001C42121951F1000148BF7047B619524148
:101CB00041EB0101A3F1010370474FEA14454FEADC
:101CC000114724EA054621EA074C05FB07F106FB0C
:101CD00007F70CFB06F24FF0000605FB0CFC12EBBD
:101CE000074241EB174112EB0C4251EB1C4148BF3C
:101CF0007047921841EB0101A3F10103704721B134
:101D0000826842F00102826003E0826822F00102F0
:101D100082607047014600208A6802F004020AB11E
:101D2000012000E0002070470146C86C80B2704777
:101D30000246002013680B400BB1012000E0002098
:101D40007047014600208A6802F008020AB10120AB
:101D500000E000207047000030B50246002000235C
:101D600050680F4C20400D790C6844EA052420434C
:101D7000506090680B4C2040D1E902542C434D79BF
:101D800044EA450420439060D06A20F470000C7C43
:101D9000641EE4B2234340EA0350D06230BD000029
:101DA000FFFEF0FFFDF7F1FFF0B504460D46002001
:101DB0000021092D11DDE068A5F10A0606EB4607B2
:101DC000072606FA07F18843A5F10A0606EB460640
:101DD00003FA06F10843E0600CE0206905EB4507D3
:101DE000072606FA07F1884305EB450603FA06F1D4
:101DF00008432061072A0FDA606B561E06EB860740
:101E00001F2606FA07F18843561E06EB860605FADA
:101E100006F10843606322E00D2A0FDA206BD61F1B
:101E200006EB86071F2606FA07F18843D61F06EB46
:101E3000860605FA06F10843206310E0E06AA2F185
:101E40000D0606EB86071F2606FA07F18843A2F166
:101E50000D0606EB860605FA06F10843E062F0BDC2
:101E6000816841F008018160704721B1826842F4C5
:101E7000A002826003E0826822F4A00282607047C0
:101E8000816841F0040181607047000010B504468C
:101E90000523012221460948FFF786FF0121074853
:101EA000FFF7E3FF00BF02210448FFF741FF0028CE
:101EB000F9D00248FFF738FF10BD000000240140B0
:101EC00000B587B00121480200F0BCFE01210420CA
:101ED00000F0B8FE4FF4004000F0A8FE00208DF89E
:101EE0001B00AA20ADF8180003208DF81A0006A9DF
:101EF000164800F097F90020019004904FF46020FC
:101F0000039000208DF809008DF8080001208DF85D
:101F1000140001A90E48FFF71FFF01210C48FFF72D
:101F2000EEFE0B48FFF79CFF00BF0948FFF709FFD3
:101F30000128FAD00648FFF7A3FF00BF0448FFF7C7
:101F4000E9FE0128FAD007B000BD000000080140FA
:101F5000002401402DE9F04788B034A2012103207C
:101F600000F04EFD33A20121042000F049FD0520C0
:101F7000FFF78CFF04460720FFF788FF054626463B
:101F8000304601F0A3FD80464FF08B4101F054FC38
:101F900007462A4901F0E2FD81464FF07E5148464E
:101FA00001F0E4FE0746264901F046FC2549086099
:101FB0000846006801F0A6FB07463A460B4622A1F8
:101FC00004A8FEF769F904AA0521032000F018FD12
:101FD000AA46504601F07AFD80461D4901F02CFCCE
:101FE00007461C4901F0BAFD1B4908600846006815
:101FF00001F088FB07463A460B4613A16846FEF7F8
:102000004BF96A460521042000F0FAFC4FF07E519E
:102010001148006801F06EFD04D810A209210420C7
:1020200000F0EEFC08B0BDE8F0870000536F753A91
:10203000000000004465703A000000003333534054
:10204000CDCC4C3D44000020252E31660000000020
:1020500000F07F450000A040480000206C6F770032
:1020600000BFFEE708B50121042000F0EBFD0820C9
:10207000ADF8000010208DF8030003208DF8020059
:102080006946044800F0CEF80821024800F060F9E3
:1020900008BD00000008014008B50820ADF80000A8
:1020A00048208DF803006946014800F0BBF808BDE0
:1020B0000008014008B50820ADF8000010208DF898
:1020C000030003208DF802006946024800F0AAF8D8
:1020D00008BD000000080140704700B5034603E05A
:1020E0004FF47A7000F005F8181EA3F10103F7D140
:1020F00000BD00EBC001C9004FF0E022516100219A
:1021000091610521116100BF4FF0E021096901F4DF
:1021100080310029F8D004214FF0E022116170478E
:1021200070B528A20121084600F06AFC27A201210F
:10213000022000F065FC274800F02EFE01283FD168
:102140002448027802230521184600F037FC214874
:10215000827802230621012000F030FC1EA2082113
:10216000012000F04DFC1B48C278012309211846CC
:1021700000F024FC1749C87801F0A8FC064617496E
:1021800001F05AFB04461349887801F09FFC05468C
:10219000214601F0E3FA124908600E49487801F03F
:1021A00095FC06460D4901F047FB044609490878AD
:1021B00001F08CFC0546214601F0D0FA094908607F
:1021C00070BD000074656D703A00000068756D3A6E
:1021D00000000000580000202E00000000002041F8
:1021E000500000205400002010B500224FF48071F0
:1021F000044800F0AFF800224FF40071014800F0ED
:10220000A9F810BD000C014010B5012211020448CC
:1022100000F0A0F801225102014800F09BF810BD27
:10222000000C01402DE9F041024600250026002067
:1022300000230024002791F803C00CF00F0591F84B
:1022400003C00CF0100CBCF1000F03D091F802C0D9
:102250004CEA050591F800C0BCF1000F31D01468BC
:1022600000202BE04FF0010C0CFA00F3B1F800C095
:102270000CEA03069E4220D183004FF00F0C0CFAAB
:1022800003F7BC4305FA03FC4CEA040491F803C0CD
:10229000BCF1280F06D14FF0010C0CFA00FCC2F87B
:1022A00014C00AE091F803C0BCF1480F05D14FF00B
:1022B000010C0CFA00FCC2F810C0401C0828D1D355
:1022C0001460B1F800C0BCF1FF0F34DD5468002089
:1022D0002EE000F1080C4FF0010808FA0CF3B1F8F9
:1022E00000C00CEA03069E4221D183004FF00F0C80
:1022F0000CFA03F7BC4305FA03FC4CEA040491F81A
:1023000003C0BCF1280F05D100F1080C08FA0CF845
:10231000C2F8148091F803C0BCF1480F07D100F156
:10232000080C4FF0010808FA0CF8C2F81080401CA5
:102330000828CED35460BDE8F0810246002093689F
:102340000B400BB1012000E0002070474161704755
:10235000016170470AB1016100E04161704700BF4F
:10236000FEE70000014800787047000030000020C0
:1023700001480078704700003100002010B5044685
:10238000012C04D0022C33D0032C57D143E02D482C
:102390000078401C032190FBF1F201FB1200294957
:1023A00008700846007802280CD1274800682749A1
:1023B0000860AF2000F038FB25A20D21022000F0BC
:1023C0001FFB14E01F480078012808D121A20D212D
:1023D000022000F015FBAE2000F026FB07E01EA255
:1023E0000D21022000F00CFBAF2000F01DFB26E0C9
:1023F0001448007818B11348007801280AD117480A
:102400000078052803DB15480078401F00E0002015
:102410001249087013E00B48007818B10948007899
:1024200001280AD10D4800785F2803DC0B480078AA
:10243000401D00E064200949087000E000BF00BFB3
:1024400010BD0000300000203800002034000020C3
:102450004F464600534C45004D414E003100002090
:1024600010B50220104908703C2010490870002067
:102470000F4908600C480078022803D10DA20D21F5
:1024800000F0BEFA0848007820B90BA20D21022006
:1024900000F0B6FA04480078012804D107A20D2103
:1024A000022000F0ADFA10BD300000203100002005
:1024B000340000204F4646004D414E00534C45002D
:1024C00070B50446642C0EDC07480470204601F009
:1024D000FDFA064601F0C2FA054602232A46082103
:1024E000184600F06BFA70BD3100002010B51A4894
:1024F00004681A48007800B100BFFFF785FE17484E
:10250000007802280ED1FFF76FFE15480068201AE8
:1025100042F21071884205D3012010490870AE20A4
:1025200000F082FA0D480078012814D100F000F97B
:102530000C490D48006801F0DDFB08D20B490C483E
:10254000006801F0D7FB02D2084809490860084832
:10255000006800F03BFB10BD380000203000002078
:1025600034000020000082424400002000008C4221
:102570002C00002008B501210C2000F063FB4FF473
:102580001840ADF8000028208DF8030003208DF8D6
:10259000020069460B48FFF745FE4FF44070ADF866
:1025A000000010208DF8030003208DF8020069461A
:1025B0000548FFF737FE4FF440710348FFF7C6FEAA
:1025C00008BD000000080140000C014010B54FF4A8
:1025D00000413048FFF7B1FE012818D11420FFF761
:1025E0007CFD4FF400412B48FFF7A7FE01280ED1D8
:1025F00000BF4FF400412748FFF79FFE0128F8D0A5
:1026000025A20F21042000F0FBF9012010BD4FF49A
:1026100080512048FFF791FE012818D11420FFF7C0
:102620005CFD4FF480511B48FFF787FE01280ED157
:1026300000BF4FF480511748FFF77FFE0128F8D004
:1026400016A20F21042000F0DBF90220DEE74FF490
:1026500000611048FFF771FE012818D11420FFF720
:102660003CFD4FF400610B48FFF767FE01280ED1D7
:1026700004E00BA20F21042000F0C2F94FF4006126
:102680000448FFF75AFE0128F3D00320BEE70020DC
:10269000BCE70000000801404D0000002D000000D4
:1026A0002B00000000BFFEE77047000070B500215E
:1026B00000230F22C47804B3154C246804F4E064AA
:1026C000C4F5E064210AC1F10403CA40447804FA65
:1026D00003F184781440214309010E4C0678A1557A
:1026E000047804F01F050124AC4005786D11AD009D
:1026F00005F1E025C5F8004109E0047804F01F0564
:102700000124AC40044D0678761145F8264070BD92
:102710000CED00E000E400E080E100E0024901434C
:10272000024A1160704700000000FA050CED00E05D
:1027300070B500240EE00021204600F0F4F80025DA
:1027400004E0002000F080F9681CC5B2802DF8DBA1
:10275000601CC4B2082CEEDB70BD000008B501217E
:10276000082000F06FFA14208DF8030003208DF884
:1027700002004FF48050ADF8000069460A48FFF7A8
:1027800051FD4FF40050ADF8000069460648FFF7D0
:1027900049FD012211030448FFF7DCFD012251032A
:1027A0000148FFF7D7FD08BD000C014070B5054694
:1027B000002419E080202041284008B1012000E0D9
:1027C000002002464FF400510E48FFF7C3FD0122DE
:1027D00011030C48FFF7BEFD00224FF48051094859
:1027E000FFF7B8FD601CC4B2082CE3DB0122110323
:1027F0000448FFF7AFFD00224FF480510148FFF776
:10280000A9FD70BD000C014010B5012251030A481A
:10281000FFF7A0FD012211030748FFF79BFD0022EF
:102820004FF400510448FFF795FD00224FF480510A
:102830000148FFF78FFD10BD000C014010B50022CC
:102840004FF400510648FFF785FD012211030448AB
:10285000FFF780FD012251030148FFF77BFD10BD0A
:10286000000C014070B5002406E0002500E06D1C5E
:10287000B5F57A7FFBD3641CB4F57A7FF5D3FFF707
:102880006DFFAE2000F0D0F8D52000F0CDF880200C
:1028900000F0CAF8A82000F0C7F83F2000F0C4F804
:1028A000D32000F0C1F8002000F0BEF8402000F076
:1028B000BBF8A12000F0B8F8C82000F0B5F8DA2085
:1028C00000F0B2F8122000F0AFF8812000F0ACF870
:1028D000CF2000F0A9F8D92000F0A6F8F12000F0F0
:1028E000A3F8DB2000F0A0F8302000F09DF8A42031
:1028F00000F09AF8A62000F097F88D2000F094F8E8
:10290000142000F091F8AF2000F08EF8FFF710FFD0
:1029100070BD10B50246012000E050430B1EA1F12E
:102920000101FAD110BD70B505460C4645F0B00066
:1029300000F07AF8102141EA141000F075F804F064
:102940000F0000F071F870BD2DE9F04105460E460C
:102950001746721ED206110E6A1E5206100EFFF79F
:10296000E2FF002409E0A7F12001134A02EB011164
:10297000085D00F069F8601CC4B2082CF3DB721E1D
:10298000D206110E6A1E012303EB4202D0B2FFF7FA
:10299000CAFF00240BE0A7F12001074A02EB011255
:1029A00004F10801505C00F04FF8601CC4B2082C20
:1029B000F1DBBDE8F08100005E3E00082DE9F04744
:1029C00080460E4617461D46002415E0281B411E72
:1029D0000A20FFF79EFFB7FBF0F00A21B0FBF1F2EF
:1029E00001FB120000F130093019C1B24A464046DD
:1029F000FFF7AAFF601CC4B2AC42E7DBBDE8F0877A
:102A00002DE9F04107460E461546002407E02A5DF1
:102A10003019C1B23846FFF797FF601CC4B2285D79
:102A20000028F4D1BDE8F08110B50446FFF7ECFEB4
:102A30007820FFF7BBFE0020FFF7B8FE2046FFF727
:102A4000B5FEFFF7FBFE10BD10B50446FFF7DCFE38
:102A50007820FFF7ABFE4020FFF7A8FE2046FFF7E7
:102A6000A5FEFFF7EBFE10BD4FF080400449086063
:102A700004484860044888600020C86008617047C6
:102A800064000020CDCCCC3DCDCC4C3D2DE9F041B7
:102A900005460E4614463146284601F067F91749A7
:102AA00008604FF07E511548006800F031F8144975
:102AB00008601449204601F01DF908D21249104857
:102AC000006801F017F902D20F480D4908600C4860
:102AD000006800F07BF80DA20B210120FFF790FFAA
:102AE0000748006800F09EFF074603233A460D2181
:102AF0000120FFF763FFBDE8F081000028000020FF
:102B00002C0000200000824200008C42503A00005D
:102B10002DE9F84F04460E462A480169204601F087
:102B200025F98146314600F087FE07462549886829
:102B3000394601F013F8234A0090D168506801F03B
:102B40000DF882461F480168204601F007F88346C9
:102B5000514600F003FE8146009900F0FFFD054656
:102B6000A8460021404600F0C5FF01D24FF0000802
:102B70001549404601F0BEF801D2DFF84C802946E5
:102B8000404600F01BFF0CD13146204600F0E6FF26
:102B900081460C48C168484600F0E0FD0949C8601C
:102BA0000BE03146204600F0D9FF81460548C16858
:102BB000484601F0D0F80349C86002480461404625
:102BC000BDE8F88F640000200000C8422DE9F04104
:102BD00005461349284600F08DFF00D2104D1149DB
:102BE000284601F087F800D20E4D4FF08041898DC4
:102BF000481C00F053FF07460A49284600F01CFE17
:102C00008046394600F0AAFF064600F027FF84B24E
:102C100021464FF0804000F04DFBBDE8F081000000
:102C20000000A0410000C84270470000014600209B
:102C3000034A506820F44040084350607047000049
:102C40000010024029B1064A92690243044B9A617E
:102C500004E0034A92698243014B9A617047000085
:102C60000010024030B500210022002400232D4D29
:102C70006D6805F00C0121B1042905D0082923D184
:102C800005E0294D056022E0274D05601FE0254D38
:102C90006D6805F47012234D6D6805F480340225CB
:102CA00005EB92421CB9214D554305600BE01D4DCB
:102CB0006D6805F400351DB11C4D5543056002E0FB
:102CC000194D5543056002E0174D056000BF00BF78
:102CD000144D6D6805F0F0010909154D6B5C056830
:102CE000DD4045600F4D6D6805F4E061090A104D47
:102CF0006B5C4568DD4085600A4D6D6805F4605188
:102D0000C90A0B4D6B5C4568DD40C560054D6D68BB
:102D100005F44041890B074D6B5CC568B5FBF3F5C5
:102D2000056130BD0010024000127A0000093D002C
:102D3000140000202400002070B50025002424E0A9
:102D400000BF08211348FFF7F8FA0028F9D028201F
:102D5000FFF7CFF908210F48FFF7EFFA01280DD14F
:102D600000BF08210B48FFF7E8FA0128F9D0C4F1A9
:102D7000070101208840C0B2054304E0C4F1070107
:102D8000012088408543601CC4B2082CD8DB28464B
:102D900070BD00000008014010B50446FFF78AF935
:102DA00008212448FFF7D2FA1220FFF796F90821EC
:102DB0002048FFF7CDFA1E20FFF79BF9FFF76CF9CB
:102DC00008211C48FFF7B9FA80BB00BF0821194849
:102DD000FFF7B3FA0028F9D000BF08211548FFF724
:102DE000ACFA0128F9D0FFF7A7FF2070FFF7A4FF86
:102DF0006070FFF7A1FFA070FFF79EFFE070FFF784
:102E00009BFF2071FFF756F908210A48FFF7A0FA47
:102E1000207861780844A1780844E1780844217951
:102E2000884201D1012010BD0020FCE7FFE700200F
:102E3000F9E700000008014010B526E000F01CF999
:102E400004460A2C03D013480078FF2812DB002028
:102E50001149104A127888540E480078002805DD80
:102E60000EA000F0F7F80C4800F0F0FB0020094934
:102E7000087009E00D2C07D0064801780078401C46
:102E8000044A10700448445400BF00F011F90028AF
:102E9000D4D110BD40000020780000205B444542A2
:102EA00055475D2052656365697665643A202573F0
:102EB0000D0A0000704700002DE9F04FABB0FFF79E
:102EC00057FA0A90FFF74EFA09901748006800F089
:102ED00019FC04460D461548006800F013FC064630
:102EE0000F461348006800F00DFC804689461148E3
:102EF000006800F007FC82468B46DDE90901524676
:102F00005B46CDE90089CDE90267CDE90445CDE90D
:102F1000060109A10BA8FDF7BFF90BA800F0E6F820
:102F20002BB0BDE8F08F00004800002044000020D6
:102F300054000020500000207B2254223A252E31DC
:102F4000662C2248223A252E31662C224E223A2522
:102F50002E31662C2257223A252E31662C225374AC
:102F6000617465223A25642C225461726765744845
:102F7000223A25647D0D0A0000B587B0012188033F
:102F8000FFF760FE01210420FFF75CFE18208DF89A
:102F90001B004FF40070ADF8180003208DF81A00E4
:102FA00006A92A48FFF73EF948208DF81B004FF488
:102FB0008060ADF8180003208DF81A0006A9234898
:102FC000FFF730F94FF4165002900020ADF81400CE
:102FD0000C20ADF812000020ADF81000ADF80E0086
:102FE000ADF80C0002A91A4800F01EFA012240F2C6
:102FF0002551174800F0F2F94FF4A060FFF78EFB5F
:1030000025208DF8040001208DF807008DF80500BB
:103010008DF8060001A8FFF749FB01210C4800F0DC
:103020009AF9012240F22551094800F0D7F92520EC
:1030300000F01F02012191404209920002F1E022BA
:10304000C2F8001100BF07B000BD00000008014039
:10305000003801400FB400B59BB01DA8019002A834
:10306000019A1C99FDF706F90020019002A800F0D2
:103070003DF81BB05DF814FB00B500F019F808B975
:10308000002000BD084809490978425C07490978D1
:10309000481CC11700EB11610912A0EB0121034B81
:1030A00019701046EDE70000780100206100002053
:1030B0000448007804490978884201D0012070470B
:1030C0000020FCE7600000206100002010B50446ED
:1030D0002146054800F019FA00BF8021024800F09F
:1030E00046F90028F9D010BD0038014070B50446FB
:1030F000002504E0605DFFF7E9FF681CC5B2605D74
:103100000028F7D170BD10B500F002F810BD000026
:103110000CB50020019000903348006840F48030E6
:103120003149086000BF3048006800F4003000906A
:103130000198401C0190009818B90198B0F5A06F53
:10314000F1D12948006800F4003010B1012000904E
:1031500001E0002000900098012843D12348006836
:1031600040F01000214908600846006820F0030084
:1031700008600846006840F0020008601A4840688D
:10318000194948600846406848600846406840F46D
:10319000806048600846406820F47C10486008461B
:1031A000406840F4E81048600846006840F08070CD
:1031B000086000BF0C48006800F000700028F9D0DB
:1031C0000948406820F00300074948600846406805
:1031D00040F00200486000BF0348406800F00C0067
:1031E0000828F9D10CBD0000001002400020024068
:1031F0007047000030B5144800684FF47A72B0FB95
:10320000F2F1B1F1807F00D31DE021F07F40401E3C
:103210004FF0E022506150170F22002807DA130701
:103220001D0E0A4B00F00F04241F1D5503E0130769
:103230001C0E074B1C5400BF00204FF0E022906191
:103240000720106100BF30BD0000002018ED00E035
:1032500000E400E010B51348006840F00100114997
:10326000086008464068104908400E494860084612
:1032700000680E4908400B4908600846006820F4C1
:10328000802008600846406820F4FE0048604FF443
:103290001F008860FFF737FF4FF0006004490860A7
:1032A00010BD0000001002400000FFF8FFFFF6FE16
:1032B00008ED00E08186704770B540F2255119484D
:1032C00000F062F801282BD1164800F019F9C5B2B8
:1032D00015490978481CC11700EB11610912A0EBD0
:1032E0000121CCB21148007884420DD1012010494F
:1032F00008700E490978481CC11700EB11610912CA
:10330000A0EB0121094A11700A4807490978455480
:103310000548047040F22551024800F00DF800BF46
:1033200070BD0000003801406000002061000020F6
:10333000620000207801002010B50022002340F632
:103340006A14A14200D100BF0A1201249440A3B222
:10335000DC43048010BD21B1828942F40052828195
:1033600004E082894DF6FF731A408281704702465D
:103370000020B1F5007F00D100BF13880B400BB1D6
:10338000012000E00020704770B5024600240023B1
:103390000025002040F66A16B14200D100BFC1F3FB
:1033A000421501F01F03012606FA03F3012D02D195
:1033B0009689334006E0022D02D1168A334001E09F
:1033C000968A33400C12012606FA04F4168834401B
:1033D00013B10CB1012000E0002070BDF0B5034630
:1033E000002400260025002040F66A17B94200D1CB
:1033F00000BF1846C1F3421401F01F06012707FA67
:1034000006F5012C01D10C3004E0022C01D1103062
:1034100000E014301AB107682F43076002E0076824
:10342000AF430760F0BD00002DE9F04786B00546C8
:103430000E460024A24600BFA1460027B08900B175
:1034400000BF2F462C8A4CF6FF700440F0880443DE
:103450002C82AC894EF6F3100440B08831890843C1
:10346000718908430443AC81AC8A4FF6FF400440A5
:10347000B0890443AC8201A8FFF7F4FB1F488742E0
:1034800002D1DDF810A001E0DDF80CA0A88900F45D
:10349000004040B10AEBCA0000EB0A103168490055
:1034A000B0FBF1F807E00AEBCA0000EB0A10316844
:1034B0008900B0FBF1F86420B8FBF0F004012009AA
:1034C000642101FB1089A88900F4004040B132203A
:1034D00000EBC900B0FBF1F000F00700044308E086
:1034E000322000EB09106421B0FBF1F000F00F0076
:1034F00004432C8106B0BDE8F0870000003801408D
:1035000001468888C0F308007047C1F30802828032
:10351000704700BFFEE7490050EAC12018BF0420F1
:103520004A0D18BF40F0010040F2FF72B2EB515F4C
:1035300008BF40F00200012808BF0520704730385E
:103540000A2801D2012070470020704770B588B06A
:1035500006460D462846FDF745F8142802D90020F6
:1035600008B070BD2B4616A220216846FCF7AAFEC3
:1035700069463046FDF724F804460CB90020EFE711
:103580006846FDF72FF8044400E0641C207840B141
:1035900020782028F9D020783A28F6D020782C28D6
:1035A000F3D02078302802DB2078392801DD002094
:1035B000D6E70A2200212046FCF7CAFFD0E7000028
:1035C000222573223A000000FFF74CF9FEF778FC41
:1035D000FEF748FDFFF748FAFFF70CFEFFF7CCFCBB
:1035E000FEF7C8FFFEF73CFF2BE0FEF7EFFF0446B7
:1035F00014B12046FEF7C2FEFEF778FFFEF7AAFCE4
:10360000FEF78EFDFFF758FCFFF716FCFEF7B0FE45
:10361000064600F05BFA0546284600F01FFA06460B
:103620000223324608211846FFF7C8F90548026808
:10363000054801682846FFF729FA6420FEF74DFD8A
:1036400000BFD2E7440000205400002070B50446BB
:103650000BA12046FCF7B4FF40B10CA12046FFF7B8
:1036600075FF0546E8B2FEF72BFF07E009A12046EB
:10367000FCF7A6FF10B10120FEF780FE70BD000030
:103680007365745F68756D690000000076616C7524
:10369000650000007365745F7374617465000000F9
:1036A00010B500290AD00878002807D005487844CA
:1036B000FDF716FF002801D0002010BD0248784415
:1036C00010BD0000BE0E0000B60E000010B50029AF
:1036D0000AD00878002807D005487844FDF700FF95
:1036E000002801D0002010BD0248784410BD000021
:1036F000A20F00009A0F00000808A0F500114FEA81
:103700003101704743004FEAD30C4FEA3C0C434071
:103710001FBF40070CF1605113F0FE4F70471CF0C3
:10372000006F03D100200CF0004170470CF0004303
:1037300043EA507010B540EACC0000F090FA00BFA8
:10374000000000924FEA0001FFF7D6BF4FF00041A2
:103750004FF00000A1F500217047000090EA010F32
:1037600048BF81F0004100F10883421A3CBF801A33
:1037700089184FEAD0524FF07F4C1CEA410FA2EB60
:10378000D15318BF9CEA026F00F03B804FF0004C11
:103790004CEA00204CEA012121FA03FC10EB0C0C4E
:1037A0001ED202F1FF325FEA1C2040EBC25038BF4C
:1037B00070471CF07F0F4FEA400C18BFBCF17F4FE1
:1037C00038BF7047C3F12003994008BF20F00100C3
:1037D000BCF17F4F38BF7047A0F1C04000F085BA00
:1037E0004FEA3C00000A40EBC25028BF1CF0FF0F1C
:1037F0004FEA400CE6D018BFBCF17F4F38BF70478E
:10380000EAE79CEA026F05D010EA5C0F08BF00F0FF
:103810000040704710B500F022FA00BF64FBBE3EC6
:10382000401058BFC0F14040491058BFC1F140415D
:103830008142EFF3008070474FF47F0C1CEAD012F6
:103840001EBF1CEAD11392EA0C0F93EA0C0F00F092
:10385000858090EA010F48BF42F4807240F4000C6A
:1038600041F400002CF07F4120F07F4000B5814200
:10387000A2EB03020FF2081CACEB504EC0F10000AB
:103880009EF800E04FEA4E0E00FB0EFC38BF4900E8
:103890004FEA2C1C02F5FA020CFB0EF34FEACE1E87
:1038A0004FEA112C4FEAC1210EEB635E42EB22423C
:1038B0000EFB0CFC4FEA1C5300FB03114FEA112CCA
:1038C0004FEA01310EFB0CFC4FEADC4C00FB0C1103
:1038D000C14228BF09184CEB03335DF804EB10EB31
:1038E000410143EBC250B2F57C0F38BF704729D578
:1038F00012F0F00F1CBF00F1C04000F00040704714
:10390000008182838485868788898B8C8D8E8F91B8
:103910009293959697999A9C9D9FA0A2A3A5A7A8DC
:10392000AAACAEB0B2B3B5B7B9BCBEC0C2C5C7C908
:10393000CCCED1D4D7D9DCDFE2E6E9ECF0F3F7FA6C
:10394000FE0000004FEA400C0CF1807CBCF17E4F81
:1039500028BF7047B0F1C04000F0C7B990EA010F2E
:103960000CEAD11348BF42F48072624538BF634508
:1039700007D213F47F0F16D080EA010000F0004058
:10398000704710B500F06BF9097EFC3E00F005B8F9
:1039900080EA010000F00040704780EA010000F07A
:1039A000004000F0A2B912F47F0F04BF0248704734
:1039B00080EA010000F099B90000C07F50EA010CD4
:1039C00000F113801CF5000F58BFBCF5000F01D4A7
:1039D0008842704707D710F5000F58BF11F5000F48
:1039E00015D488427047894270471CF5000F04D5F2
:1039F000BCF5000FF7D5814270474FF0807C1CEB7F
:103A0000400F38BF1CEB410F01D28142704710B507
:103A100000F025F9922449004FF000504FF08051FA
:103A2000FFF7FEBE41000B0ED3F19E0208D950F401
:103A300000034FEA032323FA02F048BF40427047D5
:103A400010B500F00CF900BF4992248000207047A7
:103A50006FF0004282EA200070470000C10DD1F1F2
:103A60009E0206DB4FEA002343F0004323FA02F0F4
:103A70007047004207D54FEA4001B1F1FE4F02D234
:103A80004FF00000704710B500F0E9F8499224802B
:103A9000002070476FEA20007047000010F00041DE
:103AA00048BF4042B0FA80F310FA03F2C3F19D031D
:103AB0000BD051EAC35101EB1220530638BF7047B7
:103AC00000F1010008BF20F001007047B0FA80F358
:103AD00010FA03F2C3F19D030AD0D90501EB1220BD
:103AE000530638BF704700F1010008BF20F0010005
:103AF0007047000050EA010C00F113801CF5000F24
:103B000058BFBCF5000F01D48842704707D710F5A5
:103B1000000F58BF11F5000F15D488427047894235
:103B200070471CF5000F04D5BCF5000FF7D5814296
:103B300070474FF0807C1CEB400F38BF1CEB410FEF
:103B400001D28142704710B500F089F892244900F3
:103B50004FF000504FF08051FFF762BE4FF47F0CE2
:103B60001CEAD0121EBF1CEAD11392EA0C0F93EA92
:103B70000C0F00F0478090EA010F48BF42F48072BA
:103B80004FF0004C4CEA00204CEA012102EB03020A
:103B9000A0FB0113A2F50002002918BF43F00103A6
:103BA0005B0028BF4FEA330342EB22425FEA132C4B
:103BB0004CEBC2502EBFBCEB436FB2F57C0F70478D
:103BC0004FEA036CBCF1004F08BF20F00100B2F5D2
:103BD0007C0F38BF70470BD582F0FF0212F5803F93
:103BE000C8BF704700F1C040D8BF00F00040704728
:103BF00000F5000C5FEA4C0C48BF7047B0F1C040C4
:103C000000F073B890EA010F0CEAD11348BF42F4F8
:103C10008072624538BF634504D280EA010000F03B
:103C20000040704710B500F01AF800BF8900013E4F
:103C300000F007B800F009B85FEA410C5FEA1C6CBD
:103C400008D080EA010000F050B85FEA400C5FEA5B
:103C50001C6CF6D14FF00040A0F5800070470EF1CB
:103C6000020E2EF0030E5EF8044B244204D44FEAF9
:103C70004102B2F17F4F11D84FEA4003B3F17F4FB9
:103C80000CD80ED14FEAD07CB2F17F4F0CEB4C0C2C
:103C90000CF1020C08BF4CEBD17C04E04FF0080C97
:103CA00001E04FEAD17C0CEB4C0324FA03F404F05E
:103CB0000704B4F1040C06D20EEB840CBDE81040EE
:103CC0004CF0010C6047DFE80CF0070802024FF0EF
:103CD0000040A0F5800010BD0846420018BFD2F198
:103CE000807288BF00F0004010BDFF2141EAD05033
:103CF000C005704751EA000C00F113801CF5000F5D
:103D000058BFBCF5000F01D48142704707D711F5A9
:103D1000000F58BF10F5000F15D48142704789423B
:103D200070471CF5000F04D5BCF5000FF7D588428D
:103D300070474FF0807C1CEB410F38BF1CEB400FED
:103D400001D28842704780EA010081EA000180EADE
:103D50000100FFF7F8BE80F0004090EA010F7FF508
:103D600004AD81F0004100F008B8000090EA010FB6
:103D700048BF81F000413FF5F8AC421A04D882F008
:103D80000042A0EB020011444FEAD0524FF07F4CAA
:103D90001CEA410FA2EBD15318BF9CEA026F4AD034
:103DA0004FF0004C4CEA00204CEA012121FA03FCC0
:103DB000B0EB0C0C0FD412F0FE0F36D05FEA4C00C3
:103DC0001DD5001240EBC25038BF70471CF03F0FAA
:103DD00018BF70470BE0A2F101025FEA1C2040EB24
:103DE000C25038BF70471CF07F0F18BF7047C3F137
:103DF0002003994014BF401E20F001007047800846
:103E00004FEA122308BF7047B0FA80FCA2EB0C0205
:103E1000CCF1280C60FA0CF093EA122F04BF00EBEF
:103E2000C25070474FEAC3707047130A5FEADC1054
:103E300008BF7047F6E79CEA026F04D010EA5C0FF7
:103E400008BF0020704710B5FFF709FF40DFF63EBE
:103E500081F000407047FCF772BDFDF79FB800008D
:103E60000000000000000000000000000000000052
:103E700000F80000000000000033300000000010D7
:103E80000C06100C0600000000000000000040C0FE
:103E90007840C0784000043F04043F0404000070F0
:103EA00088FC08300000001820FF211E0000F008E8
:103EB000F000E018000000211C031E211E0000F08D
:103EC0000888700000001E212324192721101016D5
:103ED0000E000000000000000000000000000000D4
:103EE00000E0180402000000000718204000000253
:103EF0000418E000000000402018070000004040C7
:103F000080F0804040000202010F01020200000028
:103F100000F0000000000101011F0101010000008C
:103F200000000000000080B07000000000000000F1
:103F3000000000000000000101010101010100007A
:103F40000000000000000030300000000000000011
:103F5000000080601804006018060100000000E006
:103F600010080810E000000F102020100F000010B3
:103F700010F8000000000020203F2020000000700A
:103F80000808088870000030282422213000003002
:103F90000888884830000018202020110E000000FA
:103FA000C02010F8000000070424243F240000F87B
:103FB0000888880808000019212020110E0000E060
:103FC000108888180000000F112020110E00003802
:103FD0000808C83808000000003F0000000000701A
:103FE000880808887000001C222121221C0000E0A3
:103FF00010080810E0000000312222110F0000001C
:1040000000C0C000000000000030300000000000D0
:104010000080000000000000806000000000000040
:1040200080402010080000010204081020004040D9
:10403000404040404000040404040404040000081C
:1040400010204080000000201008040201000070D1
:1040500048080808F0000000003036010000C030B9
:10406000C828E810E0000718272423140B000000DC
:10407000C038E0000000203C23020227382008F866
:10408000888888700000203F202020110E00C0305A
:10409000080808083800071820202010080008F831
:1040A00008080810E000203F202020100F0008F82A
:1040B0008888E8081000203F20202320180008F8F6
:1040C0008888E8081000203F200003000000C0306E
:1040D00008080838000007182020221E020008F8EF
:1040E00008000008F808203F210101213F200008B6
:1040F00008F8080800000020203F202000000000F1
:104100000808F8080800C08080807F00000008F8D8
:1041100088C028180800203F20012638200008F811
:10412000080000000000203F20202020300008F878
:10413000F800F8F80800203F003F003F200008F892
:1041400030C00008F808203F200007183F00E010AA
:1041500008080810E0000F10202020100F0008F8B9
:1041600008080808F000203F210101010000E010CC
:1041700008080810E0000F18242438504F0008F8F1
:10418000888888887000203F2000030C3020007051
:104190008808080838000038202121221C0018084F
:1041A00008F8080818000000203F2000000008F868
:1041B00008000008F808001F202020201F000878B1
:1041C000880000C83808000007380E010000F80811
:1041D00000F80008F800033C0700073C030008183B
:1041E00068808068180820302C03032C30200838A1
:1041F000C800C83808000000203F20000000100858
:104200000808C8380800203826212020180000009F
:1042100000FE020202000000007F40404000000C4F
:1042200030C000000000000000010638C00000029D
:104230000202FE000000004040407F00000000003D
:104240000402020204000000000000000000000060
:10425000000000000000808080808080808000025C
:104260000204000000000000000000000000000048
:104270008080808000000019242222223F2008F83C
:10428000008080000000003F112020110E0000007F
:10429000008080800000000E11202020110000000E
:1042A00000808088F800000E112020103F200000C0
:1042B000808080800000001F2222222213000080C4
:1042C00080F0888888180020203F2020000000000F
:1042D000808080808000006B94949493600008F844
:1042E000008080800000203F210000203F200080CF
:1042F0009898000000000020203F202000000000CF
:1043000000809898000000C08080807F000008F83E
:10431000000080808000203F24022D302000000813
:1043200008F8000000000020203F202000008080CE
:10433000808080808000203F20003F20003F8080E0
:10434000008080800000203F210000203F200000EE
:10435000808080800000001F202020201F0080809F
:1043600000808000000080FFA12020110E000000CE
:10437000008080808000000E112020A0FF808080BF
:1043800080008080800020203F212000010000006C
:104390008080808080000033242424241900008041
:1043A00080E0808000000000001F2020000080804E
:1043B000000000808000001F202020103F2080800F
:1043C00080000080808000010E300806010080809F
:1043D0000080008080800F300C030C300F000080C4
:1043E0008000808080000020312E0E3120008080EF
:1043F00080000080808080818E701806010000801F
:104400008080808080000021302C2221300000003C
:104410000000807C020200000000003F40400000DD
:104420000000FF00000000000000FF00000000028C
:10443000027C800000000040403F000000000006B9
:10444000010102020404000000000000000004005A
:104450000008000000000000000200010000100041
:1044600000000000000000003031323334353637B0
:1044700038394142434445464030580030313233A8
:1044800034353637383961626364656640307800A8
:1044900030313233343536373839616263646566BA
:1044A0007870003031323334353637383941424351
:1044B000444546585000000002400000000000A0A3
:1044C0000000000005400000000000C800000000DF
:1044D0000C4000000000409C00000000194000005B
:1044E0000020BCBE0000000034400000BFC91B8E8D
:1044F00000000004B5400000504BCFD06607E2CF6B
:10450000010000006C4100003E8251AADFEEA7349A
:1045100001000000D9420000DCB5A0E23A301F974C
:10452000FFFFFFFFB4450000FD25A0C8E9A3C14F70
:10453000FFFFFFFFFF3F00000000008000000000C1
:10454000FF3F0000000000800000000098460008C7
:10455000000000206400000028010008FC4600085C
:1045600064000020740800004401000810010000ED
:1045700043000000F8FFFFFF004040404040404043
:104580004040414141414140404040404040404026
:1045900040404040404040404005020202020202CA
:1045A0000202020202020202022020202020202019
:1045B000202020020202020202029090909090902D
:1045C00010101010101010101010101010101010EB
:1045D000101010100202020202028888888888885F
:1045E000080808080808080808080808080808084B
:1045F0000808080802020202400000000000000053
:1046000000000000000000000000000000000000AA
:10461000000000000000000000000000000000009A
:10462000000000000000000000000000000000008A
:10463000000000000000000000000000000000007A
:10464000000000000000000000000000000000006A
:10465000000000000000000000000000000000005A
:10466000000000000000000000000000000000004A
:104670000000000000000000000000001C0000001E
:1046800043000000F8FFFFFF0C0000000E000000D8
:104690000F0000002E00000000A24A0400000000ED
:1046A00000000000010203040607080900000000E2
:1046B00001020304010203040607080902040608B4
:1046C00000000000000000000246000000000000A2
:1046D00000000000000000000000000000000000DA
:1046E00000000000000000000000000000000000CA
:0C46F000000000000000000000000000BE
:04000005080000ED02
:00000001FF
